:020000040800F2
:1000000098370020C5600008290900082B0900085E
:100010002F09000833090008370900080000000014
:100020000000000000000000000000003B09000884
:100030003D090008000000003F09000841090008D0
:10004000DF600008DF600008DF600008DF60000894
:10005000DF600008DF600008DF600008DF60000884
:10006000DF600008DF6000085D080008DF6000084E
:10007000DF600008DF600008DF600008DF60000864
:10008000DF600008DF600008DF600008DF60000854
:10009000DF600008DF600008DF600008DF60000844
:1000A000DF600008DF600008DF600008DF60000834
:1000B000DF6000089D080008DF600008DF600008BE
:1000C000DF600008DF600008DF600008DF60000814
:1000D000DF6000083B600008DF600008D94D0008C1
:1000E000DF600008DF600008DF600008DF600008F4
:1000F000DF600008DF600008DF600008DF600008E4
:10010000DF600008DF600008DF600008DF600008D3
:10011000DF600008DF600008DF6000087D0B00087A
:10012000DF600008DF600008DF600008DF600008B3
:1001300000F002F800F090F80AA090E8000C824469
:100140008344AAF10107DA4501D100F085F8AFF246
:10015000090EBAE80F0013F0010F18BFFB1A43F0A5
:100160000103184728D5000048D50000103A24BFE5
:1001700078C878C1FAD8520724BF30C830C144BF0C
:1001800004680C607047000000230024002500264E
:10019000103A28BF78C1FBD8520728BF30C148BFEA
:1001A0000B6070476E2908F05E80702907F01F868B
:1001B00066290AF0648665290AF0618667290AF0D3
:1001C0005E866129AFF3008003681B0A28BF41F0F7
:1001D0008001692907F09085642907F08D857529CC
:1001E00007F08A856F2908F04181782907F0EB85AF
:1001F000E92908F0DB80E42908F0D880F52908F027
:10020000D580EF2908F03E81F82907F0EA850368D8
:10021000DB0928BF41F08001632908F0BF837329FF
:1002200008F0C483E32908F0CF83F32908F0D483CE
:10023000002070471FB508F051FC04000020002189
:1002400009F0CCFC401C60600020002109F0B0FCEB
:10025000E0601FBD10B510BD08F012FC1146FFF79D
:10026000E9FF00F01EF808F0EBFC03B4FFF7F2FF23
:1002700003BC05F087FE000010B504F012FD012854
:1002800006D11023FEA20021184604F0F8F905E07B
:100290001023FDA20021184604F0F1F904F078F8CB
:1002A00010BD8EB0002400200D900C90002705F0AA
:1002B000FFFD4FF4A06005F025FF00F0E3FC04F023
:1002C0000DFA00F0C9FC00F0A1FC41F61F4142F21A
:1002D0000F7000F027FC00F0FBFC4FF4E13005F05C
:1002E00060FE00F0CCFD04F092F807E01023E9A2D4
:1002F0000021084604F0C3F904F04AF803F014F8AA
:100300000028F3D104F083F84FF47A7005F00DFE65
:1003100005F0E4FB0BE01023E0A20021202004F014
:10032000AEF904F035F84FF4FA7005F0FEFD04F074
:1003300047FC0028EFD11023DBA20021202004F08D
:100340009EF904F025F84FF4FA6005F0EEFD002068
:10035000D8490880D8A004F0E3FCDAA004F0E0FC5F
:10036000DBA004F0DDFC78E2DD48007806287CD2D2
:10037000DFE800F0034A84F3F1F0DA48007820B1B6
:1003800004F045F80020D749087004F04DFBD6482A
:100390000088072836D2DFE800F0040B1219202766
:1003A0002E001023D1A22C21002004F068F929E0AE
:1003B0001023D0A22C21002004F061F922E01023A8
:1003C000CEA22C21002004F05AF91BE01023CDA26C
:1003D0002C21002004F053F914E01023CBA22C218F
:1003E000002004F04CF90DE01023CBA22C210020BA
:1003F00004F045F906E01023C9A22C21002004F0E6
:100400003EF900BF00BF27E2B648007820B103F0F4
:10041000FEFF0020B34908701023C4A20021084643
:1004200004F02DF91023C6A21946002004F027F984
:10043000002000F051FC0546002D1EDD0A2095FB32
:10044000F0FB102002235A4601460090302004F0B1
:10045000CCF80A2095FBF0F100FB115B1020012382
:100460005A4601460090482000E0F4E104F0BDF84F
:1004700003F08EFF642005F058FDEDE19948007807
:1004800020B103F0C4FF0020964908701023B0A2E9
:100490000021084604F0F3F81023B1A21946002009
:1004A00004F0EDF81023B0A22021002004F0E7F8BA
:1004B0001023B1A23021002004F0E1F803F068FF1E
:1004C000204603F028FC40E00DA803F003FC06469C
:1004D000DEBB0D98A04238D00D98C4B21020032383
:1004E000224601460090302004F07FF8204609F0B3
:1004F00039FE4FF06632A54BCDE9080109F046FE02
:10050000CDE90A0109F0BAFD0C90102003230090F8
:10051000202148200C9A04F068F8204609F022FEB9
:100520009B4A9C4BCDE9080109F030FECDE90A0158
:1005300009F0A4FD0746102003233A46302100901D
:10054000482004F052F803F023FF654800780228A1
:10055000BAD081E145E022E0FFE76248007820B1AF
:1005600003F055FF00205F49087010238AA2002184
:10057000084604F084F810238CA21946002004F0E9
:100580007EF81020032300908B4810210268302051
:1005900004F02BF803F0FCFE05F032FB5CE151485F
:1005A000007820B103F033FF00204E49087010237B
:1005B00082A20021084604F062F8102385A21946A1
:1005C000002004F05CF810200323009084481021E0
:1005D0000268302004F009F803F0DAFE05F010FBA1
:1005E0003AE103F014FF10237EA20021084604F034
:1005F00046F84FF0000829E1002000F06DFB0546A9
:100600006D48D0F800A07648D0F8009005F0F8FAD0
:100610000DA803F05FFB064616BB0D98A0421FD045
:100620000D98C4B2204609F09DFD4FF06632574B3D
:10063000CDE9080109F0AAFDCDE90A0109F01EFD86
:100640000C90204609F08EFD4FF033326B4BCDE914
:10065000080109F09BFDCDE90A0109F00FFD0746ED
:100660000A2095FBF0F100FB115B95FBF0F00B907D
:100670006348007863490978634A1288634BC7E08E
:100680004D61737465720000524F4C453A536C6172
:10069000766520006D7075206572720048433035B4
:1006A00020457272000000004843303520526479C2
:1006B000000000006200002041542B524F4C453D89
:1006C0003000000041542B4E414D453D4C495500F2
:1006D00041542B505357443D353637380000000005
:1006E00000000020140000201000002053756E64EC
:1006F000617900004D6F6E64617900005475657317
:10070000646179005765736461790000546875729B
:1007100073646179000000004672696461790000C9
:100720005361747572646179000000004D6F6465F7
:1007300031A3BA54656D706572617475726500009D
:1007400054656D703A2020202E20204300000000C8
:100750004D6F646532A3BA4D6F76656D656E74003A
:1007600053746570733A000044697374616E636515
:100770003A202020206D000043616C6F7269653A59
:10078000202020202063616C000000006666E63FA8
:10079000B81E85EB51B89E3F4D6F6465333A48658E
:1007A00061727420526174650000000048523A2062
:1007B0002020202020000000700000204D6F646584
:1007C000343A4F787967656E20536174757261743D
:1007D000696F6E0073706F323A2020202020000075
:1007E000680000204D6F6465353A426C7565746F22
:1007F0006F74682053656E64000000003333D33F8C
:100800000B0000200C0000200E000020080000203B
:100810001B78CDE90632CDE9081030480078304920
:100820000978CDE902A9CDE904100B983B46CDE942
:10083000000B21462BA00C9A04F05CFB03F0A8FDF2
:100840004FF4FA7005F071FB08F10108B8F1010FDF
:10085000FFF6D2AE00E000BF00BF85E510B5002076
:100860002B4908600A2005F060FB1021294805F09B
:10087000AAFD78B901202849087000F016FA274827
:100880000078401C2549087008460078052801DDDD
:1008900000200870102007F0BAF910BD10B5012132
:1008A0001F4806F016FFC0B11E480078401C1D49C5
:1008B000087003F0D3FF16480068401C1449086014
:1008C000084600680A2804D3002008600120124965
:1008D00008700121124806F00DFF10BD090000202C
:1008E0000A00002025640925640925640925642E71
:1008F00025640925640925640925640925640925F9
:10090000640925640925640925640D0A00000000B6
:100910000400002000180140140000200000002006
:100920000004004008000020704700BFFEE700BF41
:10093000FEE700BFFEE700BFFEE770477047704765
:10094000704700000CB50020019000906C480068D2
:1009500040F480306A49086000BF6948006800F4CC
:10096000003000900198401C0190009818B901983F
:10097000B0F5A06FF1D16248006800F4003010B10A
:100980000120009001E0002000900098012843D150
:100990005C48006840F010005A490860084600684A
:1009A00020F0030008600846006840F0020008607C
:1009B00053484068524948600846406848600846C5
:1009C000406840F4806048600846406820F47C102D
:1009D00048600846406840F4E810486008460068EF
:1009E00040F08070086000BF4548006800F000706B
:1009F0000028F9D04248406820F003004049486090
:100A00000846406840F00200486000BF3C4840682B
:100A100000F00C000828F9D10CBD10B5FFF792FFCB
:100A200010BD10B53648006840F001003449086038
:100A30000846406834490840314948600846006823
:100A4000324908402E4908600846006820F480209A
:100A500008600846406820F4FE0048604FF41F001C
:100A60008860FFF7DAFF4FF000602949086010BD89
:100A700010B5002100200022214B5B6803F00C011F
:100A800021B1042906D0082928D107E0214B224CA6
:100A9000236027E01F4B204C236023E0184B5B684A
:100AA00003F47010164B5B6803F48032022303EBEF
:100AB000904022B9194B4343174C23600DE0104B73
:100AC0005B6803F4003323B1144B4343124C23609F
:100AD00003E0104B4343104C236003E00D4B0E4CDE
:100AE000236000BF00BF064B5B68C3F303130C4CCD
:100AF000E15C094B1B68CB40074C236010BD000034
:100B000000100240002002400000FFF8FFFFF6FE48
:100B100008ED00E000127A001800002000093D00F6
:100B20001C0000207FB505460C460121022005F07F
:100B300080FEADF80850ADF804400020ADF80A0082
:100B4000ADF8060001A92E4805F09EFF01221146CE
:100B50002B4806F010FB1D208DF8000000208DF8BA
:100B600001008DF8020001208DF80300684605F0B1
:100B7000CEFA0121224806F0E3FA7FBD10B501212B
:100B8000204806F0A6FD68B11F48008840F40040E8
:100B90001D49088001211B4806F0ACFD00211948C1
:100BA00006F0CEFA10BD7FB505460C460121202087
:100BB00005F03FFEADF80450ADF800400020ADF860
:100BC0000600ADF8020069460E4805F05DFF0122FF
:100BD00011460C4806F0CFFA01210A4806F0B0FA97
:100BE00037208DF80C0000208DF80D0002208DF8C4
:100BF0000E0001208DF80F0003A805F088FA7FBDD4
:100C00000004004000140040620000200EB50121E5
:100C1000084605F001FE0421084605F057FC1020A7
:100C2000019001208DF80A0000208DF808000C20AA
:100C30008DF8090001A806F073FF0A208DF8000066
:100C400001208DF803008DF8010000208DF80200CE
:100C5000684605F05CFA0EBD08B50121402005F09C
:100C6000DBFD48208DF803001020ADF800000120C6
:100C70008DF802006946024805F012FB08BD00002D
:100C80000018014008B50121082005F0C5FD20200D
:100C9000ADF8000001208DF8020010208DF803004F
:100CA00069460A4805F0FCFA08BD10B5202107483E
:100CB00005F096FB044624B92021044805F09DFB6D
:100CC00003E02021014805F09AFB10BD000C014013
:100CD00010B500F026FA10BD2DE9FE4F8346002026
:100CE000029000F035FA902000F0DCFA00F06DFA86
:100CF000584600F0D7FA00F068FA00F029FA91207F
:100D000000F0D0FA00F061FA012000F0F4FA824617
:100D1000002000F0F0FA019000F038FA019800EBA2
:100D20000A2080B202907F20B0EB2A2F02DA002046
:100D3000BDE8FE8F029809F0E7FE009009F000FD83
:100D400080460022074B09F021FA06460022064B96
:100D500009F01CFA044609F0C1F980B20290029829
:100D6000E6E700000000703F0000244070B5054633
:100D70000C4600F0EDF9D02000F094FA00F025FACE
:100D800018B100F003FA012070BD284600F08AFA7D
:100D900000F01BFA204600F085FA00F016FA18B1B0
:100DA00000F0F4F90120EFE700F0F0F90020EBE7A4
:100DB00070B504460025BC2C01DB012510E0622C37
:100DC00001DB02250CE02A2C01DB032508E0142CB2
:100DD00001DB042504E00A2C01DB052500E00625E3
:100DE00029461A20FFF7C2FF70BD70B50446B4F55E
:100DF0007A7F01DD4FF47A74042C00DA04244FF476
:100E00007A7090FBF4F0401EC5B229461920FFF716
:100E1000ADFF0546264604EBD671C1F34F00FFF740
:100E2000C7FF70BD70B5044600F092F9D02000F005
:100E300039FA00F0CAF9204600F034FA00F0C5F99A
:100E400000F086F9D12000F02DFA00F0BEF9002064
:100E500000F051FA054600F099F9284670BD10B52A
:100E60000446E006010E1C20FFF780FF10BD10B500
:100E70000446E006010E1B20FFF778FF10BD38B5D1
:100E80000121084605F0C8FC0121042005F0C4FC3E
:100E90004FF40040ADF8000010208DF8030003204F
:100EA0008DF802006946954805F0FAF90121944849
:100EB00005F0C7FA00209349086000F032F980215C
:100EC0006B20FFF753FF642005F02FF800216B2003
:100ED000FFF74CFF0320FFF7CAFF0020FFF7BFFF1B
:100EE0003220FFF782FF00213820FFF73FFF00216B
:100EF0006A20FFF73BFF00212320FFF737FF802107
:100F00003720FFF733FF7520FFF78CFF0446682C6E
:100F10000BD101216B20FFF729FF00216C20FFF787
:100F200025FF3220FFF761FF01E0012038BD0020DE
:100F3000FCE72DE9F04106460F4614461D4600F039
:100F400007F9002141EA4601C8B200F0ABF900F010
:100F50003CF920B100F01AF90120BDE8F0813846D3
:100F600000F0A0F900F031F900F0F2F8012101EBF6
:100F70004601C8B200F096F900F027F90DE0012C07
:100F800004D1002000F0B7F9287003E0012000F040
:100F9000B2F92870601EC4B26D1C002CEFD100F0B5
:100FA000F5F80020D9E72DE9F84F6B4602224121E0
:100FB0006820FFF7BEFF9DF801009DF8001040EA91
:100FC00001200FFA80FA504609F0B5F88046002259
:100FD0004D4B08F0FBFE06464C4A4D4B08F046FED2
:100FE000044608F011FE83464A49584609F0D4FDEC
:100FF000044609F035FD00B2BDE8F88F2DE9FC414B
:1010000004460D4616466B46062243216820FFF72C
:1010100090FF0746BFB99DF801009DF8001040EA17
:10102000012000B220809DF803009DF8021040EAE4
:10103000012000B228809DF805009DF8041040EAC8
:10104000012000B230803846BDE8FC812DE9FC412A
:1010500004460D4616466B4606223B216820FFF7E4
:1010600068FF0746BFB99DF801009DF8001040EAEF
:10107000012000B220809DF803009DF8021040EA94
:10108000012000B228809DF805009DF8041040EA78
:10109000012000B230803846BDE8FC812DE9F041E6
:1010A00005460E461746984600F052F8002141EAE0
:1010B0004501C8B200F0F6F800F087F820B100F062
:1010C00065F80120BDE8F081304600F0EBF800F053
:1010D0007CF800240CE018F8040000F0E3F800F0BD
:1010E00074F818B100F052F80120EBE7601CC4B2AC
:1010F000BC42F0DB00F04AF80020E3E700080140C2
:1011000000023000BC01214200407540A4703D0A3D
:10111000D74342400000C84210B5022004F0E1FE6F
:1011200010BD08B50121082005F076FBC020ADF800
:10113000000010208DF8030003208DF8020069469E
:10114000854805F0ADF8C021834805F056F908BD83
:1011500010B58148006820F070407F49086008465B
:10116000006840F04050086001207C4908607C49DC
:10117000C1F89801FFF7D0FF002078490860FFF719
:10118000CBFF00207649C1F8980110BD10B5724818
:10119000006820F07040704908600846006840F020
:1011A0004050086000206D49091F08606C49C1F873
:1011B0009C01FFF7B1FF01206849091F08606849D9
:1011C000C1F89C01FFF7A8FF10BD10B500246248CC
:1011D000006820F07040604908600846006840F0F0
:1011E0000040086001205D490860FFF795FF01207D
:1011F0005B49C1F89801FFF78FFF07E0601CC4B29C
:10120000FA2C03DDFFF7C2FF012010BD53488038E0
:1012100000680028F2D15149091F086000BFF4E7B7
:1012200010B500204D49091F08604B48006820F0A8
:101230007040494908600846006840F04050086026
:1012400000204749C1F89C01FFF766FF0120434990
:10125000091F0860FFF760FF00204149C1F89801AD
:1012600010BD10B500203D49091F08603A480068CC
:1012700020F07040384908600846006840F040504F
:10128000086001203649C1F89C01FFF745FF0120A5
:101290003249091F0860FFF73FFF00203049C1F8BD
:1012A000980110BD70B504462B48006820F07040CE
:1012B000294908600846006840F040500860002056
:1012C0002649091F0860002512E0E009234908604B
:1012D0006006040E01202249C1F89801FFF71CFFA7
:1012E00000201E49091F0860FFF716FF681CC5B2E1
:1012F000082DEADB70BD70B505460024164800686D
:1013000020F07040144908600846006840F0004032
:101310000860002615E000201049091F0860FFF74B
:10132000FBFE01200E49C1F898016006040E0B482F
:101330008038006808B1601CC4B2FFF7EDFE701C75
:10134000C6B2082EE7DB15B9FFF78BFF01E0FFF708
:1013500067FF204670BD0000000C01409C812142C7
:101360000080214238B50446F74890F82400C0B107
:1013700014B10220009001E000200090F24A1268AF
:10138000D17BF14A526810786B460122FFF786FE46
:1013900010B14FF0FF3038BD9DF80010EA4841749D
:1013A00023E0E948807A10B94FF0FF30F3E724B129
:1013B000E548407C08B10020EDE714B10120009021
:1013C00001E000200090E04A1268D17BDE4A5268BA
:1013D00010786B460122FFF761FE10B14FF0FF302D
:1013E000D9E79DF80010D84841740020D3E738B5FC
:1013F00000241FE0D4480068C07AA04204D0D2483C
:101400000068407DA04200D112E0CF4949680878C9
:101410006B4601222146FFF78CFD10B14FF0FF30E3
:1014200038BD9DF800202146C8A006F031FC00BF61
:10143000601CC4B2C44840680079A042DADC0020D5
:10144000EEE770B504460D46BF480068C07AA0427A
:1014500004D0BD480068407DA04202D14FF0FF306B
:1014600070BDB94840680079A04202DC4FF0FF30FF
:10147000F6E7B549496808782B4601222146FFF76F
:1014800058FDEDE738B50446AF4890F82300A04278
:1014900001D1002038BD14B13020009001E00020BF
:1014A0000090A948807C20B19DF8000040F0020027
:1014B0000090A54890F8220020B19DF8000040F06F
:1014C00080000090A04A1268117D9F4A52681078EF
:1014D0006B460122FFF7E2FD10B14FF0FF30D9E774
:1014E000994880F823400020D4E738B5044604F03A
:1014F000700010B10120009005E014B100200090B0
:1015000001E040200090904A1268917C8E4A526817
:1015100010786B460122FFF7C1FD20B100218A48F7
:101520008172481E38BD9DF8000020F040018648B9
:1015300001730020009004F0400020B99DF80000E5
:1015400040F00400009004F0200020B99DF8000055
:1015500040F00200009004F0100020B99DF8000057
:1015600040F00100009004F0080020B99DF8000050
:1015700040F038000090744A1268D17C724A526878
:1015800010786B460122FFF789FD20B100216E48DB
:101590008172481EC6E724B1082C02D00020FFF754
:1015A00071FF6948847200210175322004F0BDFC8E
:1015B0000020B7E738B504466348807CA04201D1DB
:1015C000002038BD002C46D05F4A126811795E4A6F
:1015D000526810786B460122FFF7ABFC10B14FF058
:1015E000FF30EEE79DF8000020F020000090564A02
:1015F00012681179544A526810786B460122FFF73D
:101600004DFD10B14FF0FF30DBE7032004F08DFCFF
:10161000022000904C4890F8220020B19DF8000074
:1016200040F080000090484890F8230020B19DF8D9
:10163000000040F030000090434A1268117D424A99
:10164000526810786B460122FFF728FD002851D020
:101650004FF0FF30B5E73C4A126811793A4A5268B8
:1016600010786B460122FFF764FC10B14FF0FF3099
:10167000A7E73548807A00F0010028B19DF8000006
:1016800040F02000009004E09DF8000020F02000D1
:1016900000902D4A126811792B4A526810786B46D7
:1016A0000122FFF7FBFC10B14FF0FF3089E7032068
:1016B00004F03BFC244890F8220010B180200090F8
:1016C00001E000200090204890F8230020B19DF810
:1016D000000040F0300000901B4A1268117D1A4A49
:1016E000526810786B460122FFF7D8FC10B14FF01A
:1016F000FF3066E714488474002062E708B512489A
:10170000807A10B94FF0FF3008BD002000900E4ADB
:101710001268D17B0C4A526810786B460122FFF7A1
:10172000BDFC10B14FF0FF30EEE7074A1268517967
:10173000054A526810786B460122FFF7AFFC68B18A
:101740004FF0FF30E0E700002C0000202523357823
:101750003A20252335780D0A00000000F84A126867
:101760001179F74A526810786B460122FFF796FC10
:1017700010B14FF0FF30C7E7F14890F8240000287F
:1017800053D00C200090EE4A12681179EC4A52684E
:1017900010786B460122FFF781FC10B14FF0FF304B
:1017A000B2E7322004F0C1FBC0200090E448807A08
:1017B00000F0010020B19DF8000040F020000090F2
:1017C000DF4A12681179DE4A526810786B460122AE
:1017D000FFF764FC10B14FF0FF3095E7D848407C2C
:1017E00010B10220009001E000200090D44A12685D
:1017F000D17BD34A526810786B460122FFF74EFC2A
:1018000010B14FF0FF307FE700200090CC4A126803
:101810005179CB4A526810786B460122FFF73EFCA3
:10182000002855D04FF0FF306EE704200090C44AE6
:1018300012681179C24A526810786B460122FFF78C
:101840002DFC10B14FF0FF305EE7BD48807C20B921
:10185000BB48807A00F0010010B94020009001E000
:1018600060200090B64A12681179B54A5268107823
:101870006B460122FFF712FC10B14FF0FF3043E737
:10188000322004F052FBAE48407C10B101200090A1
:1018900001E000200090AA4A1268D17BA84A526851
:1018A00010786B460122FFF7F9FB10B14FF0FF30C3
:1018B0002AE7A34A12685179A14A52681078A04BCE
:1018C00010330122FFF7EAFB10B14FF0FF301BE7A6
:1018D000002019E770B50446002624F0010498485A
:1018E00090F8240008B1002070BD9548807A10B9A6
:1018F0004FF0FF30F8E79248057C807A204090490D
:1019000008740846007CA04202D04FF0FF3600E089
:10191000002614B98A48007D18B10120FFF722FD86
:1019200002E00020FFF71EFD3CB1FFF7E7FE20B10B
:10193000834805744FF0FF30D6E73046D4E738B51A
:1019400004467F48807A10B94FF0FF3038BDBC2C78
:1019500002DB0120009015E0622C02DB02200090E7
:1019600010E02A2C02DB032000900BE0142C02DB99
:101970000420009006E00A2C02DB0520009001E024
:10198000062000906E48C07A9DF80010884201D170
:101990000020DBE76A4A12689178694A5268107839
:1019A0006B460122FFF77AFB10B14FF0FF30CDE715
:1019B0009DF800106248C1720020C7E738B50446A0
:1019C000282C02DD4FF0FF3038BDDCB90020FFF7D6
:1019D00059FD00208DF8000007208DF80100584ABD
:1019E0001268917C564A526810786B460222FFF7C3
:1019F00055FB10B14FF0FF30E6E70021504801756C
:101A00000020E1E70120FFF73DFD20208DF80000D8
:101A1000012C06D100208DF801000520FFF78FFF73
:101A200017E0052C06DC01208DF801000520FFF7EA
:101A300086FF0EE0142C06DC02208DF801000A203F
:101A4000FFF77DFF05E003208DF801001420FFF76C
:101A500076FF9DF80100072101EB8010C0B28DF8E0
:101A60000100374A1268917C354A526810786B46FB
:101A70000222FFF713FB10B14FF0FF30A4E708215B
:101A80002F48817200210173012101750020FFF7A9
:101A900021FF002098E738B504462948807A10B91C
:101AA0004FF0FF3038BD264890F8240010B14FF0B9
:101AB000FF30F7E72248007D50B134B1282C04DC18
:101AC000E0B2FFF77BFF0020ECE70020FFF776FF96
:101AD000042C01DA042404E0B4F57A7F01DD4FF42C
:101AE0007A744FF47A7090FBF4F0401EC0B200900C
:101AF000134A12685178124A526810786B460122D4
:101B0000FFF7CCFA10B14FF0FF30CBE79DF80000A3
:101B1000401C4FF47A7191FBF0F081B20848C1810A
:101B20000146C9894810FFF70AFF0020BAE738B517
:101B300004460348807A28B94FF0FF3038BD0000D2
:101B40002C000020022C06D0042C07D0082C08D032
:101B5000102C0CD108E0002000900BE00820009031
:101B600008E01020009005E01820009002E04FF0FF
:101B7000FF30E3E700BFF948407A9DF80010B0EB72
:101B8000E10F01D10020D9E7F44A1268D179F34A74
:101B9000526810786B460122FFF780FA10B14FF0BF
:101BA000FF30CBE79DF80000C110EC4841720020E7
:101BB000C4E738B50446E948807A10B94FF0FF30E1
:101BC00038BDFA2C09D0B4F5FA7F09D0B4F57A7F84
:101BD00009D0B4F5FA6F0CD108E0002000900BE0BA
:101BE0000820009008E01020009005E018200090E8
:101BF00002E04FF0FF30E3E700BFD848007A9DF8DD
:101C00000010B0EBE10F01D10020D9E7D34A1268F0
:101C10009179D24A526810786B460122FFF73EFA5A
:101C200010B14FF0FF30CBE79DF80000C010CB495A
:101C300008720020C4E71CB580208DF80000C74A58
:101C40001268917CC54A526810786B460122FFF7F2
:101C500025FA10B14FF0FF301CBD642004F065F987
:101C600000208DF80000BD4A1268917CBB4A526882
:101C700010786B460122FFF711FA10B14FF0FF30D8
:101C8000EAE7B64A1268917DB44A526810786B460A
:101C90000622FFF74EF910B14FF0FF30DCE79DF858
:101CA0000500C007400F9DF8031001F0010140EA54
:101CB00041009DF8011001F0010140EA010494B1D6
:101CC000012C03D10121A548C17431E0022C03D1BC
:101CD0000021A248C1742BE02146A1A005F0D8FF45
:101CE0004FF0FF30B8E79D4A1268D1789B4A52689E
:101CF00010786B460122FFF71CF910B14FF0FF304E
:101D0000AAE79DF8000000F00F042CB99E4805F0EA
:101D1000BFFF4FF0FF309FE7042C06D19BA005F0DA
:101D2000B7FF01218D48C17402E000218B48C174C6
:101D3000FF218A488172FF2088490872FF21874865
:101D40004172C1724FF6FF71C181FF21017481742C
:101D50000121017380F82210002180F823104175C1
:101D600001751630016041608160163880F82410DA
:101D700080F82510C1844FF4FA60FFF71AFF10B104
:101D80004FF0FF3068E70220FFF7D1FE10B14FF0AF
:101D9000FF3061E72A20FFF7D2FD10B14FF0FF308E
:101DA0005AE73220FFF777FE10B14FF0FF3053E7CC
:101DB0000020FFF78FFD10B14FF0FF304CE70020FF
:101DC000FFF7F8FB10B14FF0FF3045E70020FFF7B9
:101DD0008CFB002040E770477CB504460D465F4809
:101DE000807A00F0700010B94FF0FF307CBD5B4A84
:101DF0001268117B594A526810786B460622FFF729
:101E000098F810B14FF0FF30F0E79DF801009DF811
:101E1000001040EA012000B220809DF803009DF8E8
:101E2000021040EA012000B260809DF805009DF894
:101E3000041040EA012000B2A08015B12846FFF747
:101E4000CAFF0020D2E77CB504460D464348807A9D
:101E500000F0080010B94FF0FF307CBD3F4A126817
:101E6000517B3E4A526810786B460622FFF761F8B4
:101E700010B14FF0FF30F0E79DF801009DF8001021
:101E800040EA012000B220809DF803009DF8021076
:101E900040EA012000B260809DF805009DF8041022
:101EA00040EA012000B2A08015B12846FFF793FF59
:101EB0000020D2E72DE9FE4F05460C462748807AE0
:101EC00018B94FF0FF30BDE8FE8F244A1268917BAD
:101ED000224A5268107802AB0222FFF72AF810B1AA
:101EE0004FF0FF30EFE79DF809009DF8081040EA39
:101EF000012006B214B12046FFF76DFF174949686B
:101F0000C88808F001FE154901904968B1F9080038
:101F100008F0E2FD8346304608F0DEFD59460090A9
:101F200008F038FF8246019908F0A4FC81461F4959
:101F300008F032FC80464FF08F4108F02DFE074636
:101F400008F08EFD28600020BDE710B588B004467B
:101F50001CB94FF0FF3008B010BD29E02C00002064
:101F6000556E737570706F7274656420736F6674EC
:101F7000776172652070726F647563742072657624
:101F80002025642E0A0000003CD6000848616C66DB
:101F90002073656E736974697669747920706172F3
:101FA0007420666F756E642E0A00000000000C42FB
:101FB000206830B9606820B9A06810B9002008B066
:101FC00010BDFA494968087806AB03221146FEF7AE
:101FD000B0FF10B14FF0FF30F1E79DF81800082175
:101FE00001EB201000F00F00ADF800009DF8190083
:101FF00001EB201000F00F00ADF802009DF81A0070
:1020000001EB201000F00F00ADF804002068410043
:10201000BDF90000403091FBF0F000B2ADF81000C7
:1020200060684100BDF90200403091FBF0F000B261
:10203000ADF81200A0684100BDF90400403091FBEA
:10204000F0F000B2ADF81400D8494968087806AB42
:1020500006221146FEF76DFF10B14FF0FF30AEE7DC
:102060009DF819009DF8181040EA012000B2ADF863
:1020700008009DF81B009DF81A1040EA012000B2EC
:10208000ADF80A009DF81D009DF81C1040EA0120E3
:1020900000B2ADF80C00BDF81000BDF808100844FF
:1020A00000B2ADF81000BDF81200BDF80A100844E7
:1020B00000B2ADF81200BDF81400BDF80C100844D1
:1020C00000B2ADF81400BDF81000000A8DF8180039
:1020D000BDF81000C0B28DF81900BDF81200000A5A
:1020E0008DF81A00BDF81200C0B28DF81B00BDF8C3
:1020F0001400000A8DF81C00BDF81400C0B28DF861
:102100001D00AA494968087806AB06221146FEF769
:10211000C5FF10B14FF0FF3051E700204FE70146F7
:10212000A248007A30B1012807D0022809D003283C
:102130000FD10AE0FA2008800EE04FF4FA70088010
:102140000AE04FF47A70088006E04FF4FA600880E5
:1021500002E00020088000BF00BF00207047014659
:102160009248407A30B1012807D0022808D00328CD
:102170000CD108E0022008700BE00420087008E091
:102180000820087005E01020087002E04FF0FF30D2
:10219000704700BF8548C07C18B108784006000E23
:1021A00008700020F4E701468048C07A082817D25A
:1021B000DFE800F01704070A0D101318BC20088090
:1021C00013E06220088010E02A2008800DE014202F
:1021D00008800AE00A20088007E00520088004E063
:1021E00000BF00BF0020088000BF00BF0020704774
:1021F00001466E4890F8240010B14FF0FF30704750
:102200006A48C08908800020F9E70146002008805C
:10221000401E704701464FF0FF307047014663484B
:10222000007A30B1012807D0022808D003280CD149
:1022300008E05F4808600BE05E48086008E05E4820
:10224000086005E05D48086002E04FF0FF3070472D
:1022500000BF0020FBE701465448407A30B1012816
:1022600008D002280AD0032810D10BE04FF4804098
:1022700008800EE041F69C7008800AE04FF4805020
:10228000088006E04FF40060088002E04FF0FF3065
:10229000704700BF4548C07C10B1088840100880D6
:1022A0000020F5E701464148007C08700020704797
:1022B00001463E48807A10B10120087001E00020FC
:1022C00008700020704738B504463848807A10B945
:1022D0004FF0FF3038BD354A1268117C334A5268DE
:1022E00010786B460222FEF724FE10B14FF0FF304B
:1022F000F0E79DF801009DF8001040EA012000B2CF
:1023000020800020E6E72DE9FE4F074688469246EA
:102310001D46DDF830B000260024244890F8240043
:1023200010B1601EBDE8FE8F002028701F48807A23
:1023300010B94FF0FF30F5E71C48007C10B94FF0A2
:10234000FF30EFE71948007C00F0400008B1B01CF6
:10235000C6B21648007C00F0200008B1B01CC6B21E
:102360001248007C00F0100008B1B01CC6B20F4843
:10237000007C00F0080008B1B01DC6B20B4A12681C
:10238000917A0A4A526810786B460222FEF7D1FD14
:1023900010B14FF0FF30C5E79DF801009DF8001027
:1023A00040EA0129B1450BDA0020BBE72C000020F0
:1023B000000003430000834233330342333383413D
:1023C000FC4840684088B9EB600F17DDF94A126895
:1023D000517CF84A526810786B460122FEF7A9FD3D
:1023E00010B14FF0FF309DE79DF8000000F01000A5
:1023F00020B1FFF783F96FF0010093E75046FFF734
:10240000EAFCEC4A1268D17AEA4A526810786B46C4
:102410003246FEF78EFD10B14FF0FF3082E799FB98
:10242000F6F0401E8BF8000000202870B4422AD03D
:10243000E048007C00F0080028B3601C1DF8000094
:102440001DF8041040EA012000B2A8F80000E01CCA
:102450001DF80010A01C1DF8000041EA002000B289
:10246000A8F80200601D1DF80010201D1DF80000D6
:1024700041EA002000B2A8F80400287840F00800E3
:102480002870A01D84B2B44213D0CA48007C00F06A
:10249000400070B1601C1DF800001DF8041040EAF7
:1024A000012000B23880287840F040002870A01C3D
:1024B00084B2B44213D0BF48007C00F0200070B159
:1024C000601C1DF800001DF8041040EA012000B255
:1024D0007880287840F020002870A01C84B2B44294
:1024E00013D0B448007C00F0100070B1601C1DF8DF
:1024F00000001DF8041040EA012000B2B8802878DE
:1025000040F010002870A01C84B200200AE7F8B543
:1025100004460F461646A74890F8240010B94FF01D
:10252000FF30F8BDA348807A10B94FF0FF30F8E7CC
:10253000A04A1268917A9F4A526810786B4602222C
:10254000FEF7F7FC10B14FF0FF30EAE79DF801000D
:102550009DF8001040EA0125A54203DA0020307002
:10256000401EDEE7934840684088B5EB600F17DDFA
:10257000904A1268517C8F4A526810786B4601224B
:10258000FEF7D7FC10B14FF0FF30CAE79DF800000E
:1025900000F0100020B1FFF7B1F86FF00100C0E7C4
:1025A000E2B2844B1B68D97A824B5B6818783B4651
:1025B000FEF7BFFC10B14FF0FF30B2E795FBF4F02F
:1025C000401E30700020ACE701467A4880F82210A7
:1025D000002070477CB5054676494968087801AB0C
:1025E00004220D21FEF7A5FC08B107207CBD9DF853
:1025F0000700C0F301109DF8041001F0E00140EA6B
:10260000E1008DF800009DF80700C0F381009DF8FF
:10261000051001F0E00140EAE1008DF801009DF8AD
:10262000070000F003009DF8061001F0E00140EA09
:10263000E1008DF8020000241CE01DF8040018B928
:10264000002045F8240013E05B4845F8240006E02C
:1026500055F82400594908F09FFA45F824001DF860
:102660000400401EC0B20DF804000028F0D100BFE5
:10267000601CC4B2032CE0DB0020B7E72DE9FE4F5D
:1026800006460F4600256846FFF7A4FF002442E0F7
:1026900056F8240057F82410A0EB010ABAF1000FF5
:1026A00001DB514601E0CAF10001084608F014FAC6
:1026B00083464FF08F4108F0DDF880465DF8240036
:1026C000002108F099F916D05DF82410404608F072
:1026D000D1F882464FF07E5108F05CFB814629F02C
:1026E000004A3748416A504608F022FB12D20120C6
:1026F000A04005430EE03248C169404608F018FA90
:1027000005D32F48016A404608F012FB02D201208F
:10271000A0400543641C032CBADB2846BDE8FE8FAD
:102720002DE9FC5F06460F460025224949680878D6
:1027300001AB03220D21FEF7FCFB10B10720BDE821
:10274000FC9F9DF8040000F01F008DF804009DF828
:10275000050000F01F008DF805009DF8060000F050
:102760001F008DF80600002462E056F8240057F898
:102770002410A0EB010BBBF1000F01DB594601E077
:10278000CBF10001084608F0A7F94FF08F41009007
:1027900008F070F8814601A8005DC0B308490868D8
:1027A00008F0B2F983465946064808F063F88046B7
:1027B0000FE000002C0000207B14AE3E1D5A843F29
:1027C0009CAF000800B04C45FE49404608F0E4F9D3
:1027D000804601A8005D401EC0B201A9085500282E
:1027E000F2D14146484608F045F883464FF07E5105
:1027F00008F0D0FA82462AF0004BF3488169584627
:1028000008F096FA13D20120A04005430FE0FFE73D
:10281000ED480169484608F08BF905D3EA4841695B
:10282000484608F085FA02D20120A0400543641C06
:10283000032C9ADB284682E72DE9F04F87B0054646
:102840000C46914601208DF8100000208DF81100F3
:10285000DE4A1268917CDD4A5268107804AB02228D
:10286000FEF71CFC20B14FF0FF3007B0BDE8F08F41
:10287000C82003F05AFB00208DF81000D34A1268DC
:10288000D17BD24A5268107804AB0122FEF706FCD5
:1028900010B14FF0FF30E8E7CC4A12685179CB4ACB
:1028A0005268107804AB0122FEF7F8FB10B14FF02C
:1028B000FF30DAE7C54A1268917CC44A5268107842
:1028C00004AB0122FEF7EAFB10B14FF0FF30CCE77A
:1028D000BE4A1268D17DBD4A5268107804AB01220D
:1028E000FEF7DCFB10B14FF0FF30BEE7B74A1268CD
:1028F0001179B64A5268107804AB0122FEF7CEFB7C
:1029000010B14FF0FF30B0E70C208DF81000AF4A47
:1029100012681179AD4A5268107804AB0122FEF7B3
:10292000BDFB10B14FF0FF309FE70F2003F0FDFA21
:10293000A648806A407A8DF81000A44A12689178FF
:10294000A24A5268107804AB0122FEF7A7FB10B12F
:102950004FF0FF3089E79D48806A007A8DF81000BB
:102960009A4A12685178994A5268107804AB012249
:10297000FEF794FB10B14FF0FF3076E7B9F1000F8E
:1029800007D09248806A807A40F0E0008DF810000D
:1029900004E08E48806A807A8DF810008B4A1268B5
:1029A00091798A4A5268107804AB0122FEF776FBCF
:1029B00010B14FF0FF3058E7B9F1000F07D083484E
:1029C000806AC07A40F0E0008DF8100003E07E4895
:1029D000C07A8DF810007D4A1268D1797B4A52681E
:1029E000107804AB0122FEF759FB10B14FF0FF3015
:1029F0003BE7B9F1000F02D0C82003F096FA40205F
:102A00008DF81000714A12681179704A5268107876
:102A100004AB0122FEF742FB10B14FF0FF3024E778
:102A200078208DF81000694A12685179674A526817
:102A3000107804AB0122FEF731FB10B14FF0FF30EC
:102A400013E76149888903F070FA00208DF81000BF
:102A50005E4A126851795D4A5268107804AB0122CF
:102A6000FEF71CFB10B14FF0FF30FEE6574A12682C
:102A7000917A564A5268107804AB0222FEF759FA4E
:102A800010B14FF0FF30F0E69DF811009DF81010E6
:102A900040EA012B0C209BFBF0F0C6B20020A8609E
:102AA00068602860A06060602060824665E0474AF8
:102AB0001268D17A454A5268107804AB0C22FEF7AE
:102AC00038FA10B14FF0FF30CFE69DF811009DF8B5
:102AD000101040EA012000B2ADF808009DF8130084
:102AE0009DF8121040EA012000B2ADF80A009DF8EE
:102AF00015009DF8141040EA012000B2ADF80C005A
:102B0000BDF90810206808442060BDF90A1060680B
:102B100008446060BDF90C10A0680844A0609DF8EE
:102B200017009DF8161040EA012000B2ADF8000031
:102B30009DF819009DF8181040EA012000B2ADF888
:102B400002009DF81B009DF81A1040EA012000B217
:102B5000ADF80400BDF90010286808442860BDF9EC
:102B60000210686808446860BDF90410A868084449
:102B7000A8600AF1010000F0FF0AB24597DB124895
:102B8000D0F800C02868C117090441EA10410704C1
:102B900062460023384605F044F832460023CDE96A
:102BA000020105F03EF828600748D0F800C06868C8
:102BB000C117090441EA1041070462460023384660
:102BC00006E0000054E3853F9CAF00082C00002085
:102BD00005F027F832460023CDE9020105F021F87F
:102BE0006860FE48D0F800C0A868C117090441EA2F
:102BF0001041070462460023384605F012F83246B9
:102C00000023CDE9020105F00CF8A860F348D0F8E4
:102C100004C02168C817000440EA11480F04624646
:102C200000233846414604F0FCFF32460023CDE93C
:102C3000020104F0F6FF2060E848D0F804C06068A4
:102C4000C117090441EA10410704624600233846CF
:102C500004F0E7FF32460023CDE9020104F0E1FF72
:102C60006060DE48D0F804C0A068C117090441EADA
:102C70001041070462460023384604F0D2FF324672
:102C80000023CDE9020104F0CCFFA060A068002879
:102C900004DDA068A0F58030A06003E0A06800F526
:102CA0008030A0600020E0E538B50446CC4890F8BC
:102CB0002400A04201D1002038BD24B3C84890F8B8
:102CC000250010B94FF0FF30F6E70020FEF74AFB71
:102CD0000020FEF76FFCC249C88CFEF7DCFE002026
:102CE0000090BF49496808786B4601222321FEF70E
:102CF000D5F90121BA4880F824100120FEF732FBF3
:102D0000FEF7FCFC13E00020FEF72CFBB448007C2F
:102D10000090B349496808786B4601222321FEF7E9
:102D2000BDF90021AE4880F82410FEF7E7FC002032
:102D3000C2E72DE9F04F8DB083460F4602200C907C
:102D4000A74890F8240020B10020FFF7ADFF01262E
:102D500000E0002603A8FFF7E2F905A8FFF7FFF956
:102D600001A8FFF720FA02A8FFF742FA9C4890F862
:102D70000AA004A8FFF796FA002407E000223946CB
:102D80005846FFF759FD00B902E0641C022CF5DB40
:102D900000BF022C01D1002528E0002407E0012219
:102DA00006A909A8FFF748FD00B902E0641C022C3F
:102DB000F5DB00BF022C01D1002517E006A938463B
:102DC000FFF75CFC00F0FF0809A95846FFF7A8FCD4
:102DD00000F0FF090025B9F1000F01D145F0010510
:102DE000B8F1000F01D145F0020500BFFF207C497A
:102DF0000872FF217A484172C1724FF6FF71C1819A
:102E0000FF218172017401210173BDF80C00FEF7EE
:102E1000D0FE9DF81400FEF78AFEBDF80400FEF710
:102E20008EFDBDF80800FEF736FE5046FEF75DFB4E
:102E30009DF81000FEF74EFD16B10120FFF734FF9C
:102E400028460DB0BDE8F08FF8B504460D4616468D
:102E500016B94FF0FF30F8BD6148807A10B94FF0D5
:102E6000FF30F8E720128DF80000E0B28DF8010085
:102E70009DF8010028445A4949684989884202DD81
:102E80004FF0FF30E7E7564A1268117E544A526805
:102E900010786B460222FEF701F910B14FF0FF30B7
:102EA000D9E7EAB24E4B1B68597D4D4B5B681878E9
:102EB0003346FEF7F3F810B14FF0FF30CBE70020B8
:102EC000C9E7F8B504460D46164616B94FF0FF306F
:102ED000F8BD4348807A10B94FF0FF30F8E7201270
:102EE0008DF80000E0B28DF801009DF80100284443
:102EF0003B4949684989884202DD4FF0FF30E7E7E6
:102F0000374A1268117E364A526810786B460222A0
:102F1000FEF7C4F810B14FF0FF30D9E7EAB2304BFA
:102F20001B68597D2E4B5B6818783346FEF701F815
:102F300010B14FF0FF30CBE70020C9E72DE9F04397
:102F400085B005460E4690469946254890F82500DE
:102F500020B14FF0FF3005B0BDE8F08316B94FF057
:102F6000FF30F8E7002423E0281B102801DD1020A3
:102F700000E0281B87B2321939462046FFF764FF6C
:102F800010B14FF0FF30E6E701AA39462046FFF7BF
:102F900098FF10B14FF0FF30DDE730193A4601A934
:102FA00004F0F4FF10B16FF00100D4E7E01984B22F
:102FB000AC42D9DB4FEA28208DF8000008F0FF0072
:102FC0008DF80100064A1268917E054A5268107811
:102FD0006B460222FEF762F838B103E09CAF0008AE
:102FE0002C0000204FF0FF30B5E70121FE4880F8AB
:102FF0002510A0F826900020ADE70146FA4890F889
:1030000024000870002070474FF0FF3070470246E0
:103010004FF0FF30704701464FF0FF307047F8B572
:1030200005460F461446002C70D0B5F5FF5F01DD54
:10303000FF2605E0202D01DA012601E0C5F3471641
:1030400007B90127282C02DD4FF0FF30F8BDE64814
:10305000407D28BBE44890F8240038B10020FFF7F9
:1030600023FE0121E04880F8201003E00021DE4823
:1030700080F82010DC481630FFF751F8DA48183095
:10308000FFF76DF8D8481A30FFF78DF8D6481C3096
:10309000FFF7AEF8D448817A81771F30FFF702F945
:1030A0000020FEF75FF90020FEF788FC00208DF875
:1030B0000000CD4A12689178CB4A526810786B466E
:1030C0000122FDF7EBFF10B14FF0FF30BEE74020CB
:1030D0008DF80000C44A1268D17BC34A5268107848
:1030E0006B460122FDF7DAFF00B165E08DF8006064
:1030F0008DF80170BC4A1268117ABB4A5268107888
:103100006B460222FDF7CAFF08B155E047E00520F3
:1031100002F00BFFB448407A072101EBC000C0B2B7
:103120008DF80000B04A1268D179AF4A5268107821
:103130006B460122FDF7B2FF00B13DE020208DF883
:103140000000012C03D100208DF801000EE0052CB9
:1031500003DC01208DF8010008E0142C03DC0220C0
:103160008DF8010002E003208DF801009DF80100B8
:10317000072101EB8010C0B28DF801009A4A126855
:10318000917C994A526810786B460222FDF786FFBF
:1031900000B111E0012194484175002056E7924AA0
:1031A0001632002103E0505C00B105E0491C0C29F7
:1031B000F9D34FF0FF3049E7FF208B490872FF2118
:1031C00089484172C1724FF6FF71C181FF2181723E
:1031D0000174012101730146887FFEF786F9824957
:1031E000C88AFEF7E6FC8049087EFEF7A0FC7E490F
:1031F000488BFEF7A4FB7C49888BFEF74CFC7A4990
:10320000C87FFEF767FB784890F8200010B10120D6
:10321000FFF74AFD002174484175002016E770B59C
:1032200088B002A905A8FFF784FD0446032C3ED10F
:1032300001A8FEF7F3FF059807F04EFC064601993A
:1032400007F0AAFC054607F00BFC0590069807F06E
:1032500043FC0646019907F09FFC054607F000FC79
:103260000690079807F038FC0646019907F094FC91
:10327000054607F0F5FB079005A800F054FA6846EC
:10328000FEF7E9FFBDF80010029848430290BDF830
:103290000010039848430390BDF800100498484379
:1032A000049002A800F0D2FA002008B070BD0120FE
:1032B000FBE7014691F90020002A01DD00201EE015
:1032C00091F90020002A01DA042018E091F9012088
:1032D000002A01DD012012E091F90120002A01DA23
:1032E00005200CE091F90220002A01DD022006E011
:1032F00091F90220002A01DA062000E00720704739
:1033000010B504462046FFF7D4FF0346E01CFFF744
:10331000D0FF43EAC00083B2A01DFFF7CAFF43EA13
:10332000801083B2184610BD70B50024FDF7F9FE79
:10333000FEF781FC002840D17820FEF7D6F8C4B211
:103340000CB1012070BD7820FEF7C4FAC4B20CB1F4
:103350000220F7E76420FEF79EFBC4B20CB1032005
:10336000F0E700F045F9C4B20CB10420EAE71F48C9
:10337000FFF7C6FF054600F045F9C4B20CB10520C1
:10338000E0E740F2731000F07EFDC4B20CB10620FD
:10339000D8E7642000F0F0FAC4B20CB10720D1E7FE
:1033A000FFF73DFF04460CB10820CBE70120FFF7F3
:1033B0007BFCC4B21CB10920C4E70A20C2E700208C
:1033C000C0E72DE9F04F99B004460D4616464FF080
:1033D0007E574FF000084FF000094FF0000A12A886
:1033E00013A918AB0EAA03E02C00002058000020FF
:1033F000CDE9001014A916A800F0A4FE18B1012010
:1034000019B0BDE8F08FBDF84C0000F480700028C2
:103410007ED00E9807F060FB83464FF09D4107F089
:1034200029FA07460F9807F057FB83464FF09D4156
:1034300007F020FA8046109807F04EFB83464FF0C5
:103440009D4107F017FA8146119807F045FB834626
:103450004FF09D4107F00EFA824639464FF080400A
:1034600007F09AFB4946059007F096FB4146079006
:103470004FF0404007F090FB5146059007F08CFB61
:103480000690079907F088F9834607F059F9CDE9C6
:10349000080106F05FF84FF06632544BCDE90A019F
:1034A00006F074FECDE90C0106F0AEFB2060494643
:1034B0004FF0804007F070FB4946029007F06CFB2C
:1034C000414604904FF0404007F066FB41460290B1
:1034D00007F062FB0390049907F05CFC83464FF011
:1034E0007E5107F059F9059007F02AF9CDE9080156
:1034F00039464FF0804007F04FFB4146039007F0FC
:103500004BFB494604904FF0804007F045FB00E03C
:1035100068E05146039007F03FFB8346049907F0AB
:103520003BF9059007F00CF9CDE90601DDE9082328
:1035300006F058FA4FF066322C4BCDE90A0106F03E
:1035400025FECDE90C0106F05FFB28605146504690
:1035500007F022FB49460490484607F01DFB414610
:103560000390404607F018FB39460190384607F0B3
:1035700013FB0090019907F00FF90290039907F0EF
:1035800009FC8346049907F005FC059007F0D8F87C
:10359000CDE908015146384607F0FEFA4946049045
:1035A000404607F0F9FA0390049907F0F5F84FF058
:1035B0008041059007F0F0FA834607F0C1F8CDE9A5
:1035C0000601DDE9082306F00DFA4FF06632074BDD
:1035D000CDE90A0106F0DAFDCDE90C0106F014FB95
:1035E000306001E002200BE7002009E766A64C40AE
:1035F00010B5C8234FF48062F74940F6F630FFF764
:103600009DFC10BD10B586B00446F4A00068039080
:10361000F3A000680290F3A000680190F2A0006897
:10362000009004F0030003A9085C8DF8140003A8BF
:10363000C4F3C101405C8DF8150003A8C4F38111E7
:10364000405C8DF8160004F0030002A9085C8DF8B8
:10365000100002A8C4F3C101405C8DF8110002A85B
:10366000C4F38111405C8DF8120005AA032140F2D9
:103670002640FFF7E9FB18B14FF0FF3006B010BD50
:1036800004AA032140F22A40FFF7DEFB10B14FF0FD
:10369000FF30F3E7019805900098049004F00400CF
:1036A00058B19DF8140040F001008DF814009DF809
:1036B000100040F001008DF8100004F0200058B117
:1036C0009DF8150040F001008DF815009DF81100DF
:1036D00040F001008DF8110004F4807058B19DF89D
:1036E000160040F001008DF816009DF8120040F021
:1036F00001008DF8120005AA03214FF48860FFF73E
:10370000A3FB10B14FF0FF30B8E704AA032140F249
:103710003140FFF799FB10B14FF0FF30AEE7B348EF
:1037200004810020AAE71FB50446B048007A00F0E3
:10373000030054F820000190AC48007A00F0040027
:1037400010B1019840420190A848007AC0F3C1002E
:1037500054F820000290A548007A00F0200010B133
:10376000029840420290A148007AC0F3811054F8B8
:10377000200003909D48008900F4807010B10398E8
:10378000404203909A49019880FB0101800F40EA72
:10379000810001909649029880FB0110820042EA64
:1037A000917002909249039880FB0110820042EAD6
:1037B000917003900198000E8DF800000198000CA4
:1037C0008DF801000198000A8DF802000198C0B23E
:1037D0008DF803006A4604214FF47470FFF734FB40
:1037E00018B14FF0FF3004B010BD0298000E8DF8F4
:1037F00000000298000C8DF801000298000A8DF874
:1038000002000298C0B28DF803006A4604214FF40A
:103810007570FFF719FB10B14FF0FF30E3E7039825
:10382000000E8DF800000398000C8DF8010003983D
:10383000000A8DF802000398C0B28DF803006A46B2
:1038400004214FF47670FFF7FFFACCE770B588B02B
:10385000064601A8FEF7FFFCBDF804000021C903DD
:1038600041EA5045C4036148007A00F0030056F86D
:10387000200005905D48007A00F0040010B1059822
:10388000404205905948007AC0F3C10056F8200024
:1038900006905648007A00F0200010B10698404289
:1038A00006905248007AC0F3811056F82000079025
:1038B0004E48008900F4807010B10798404207908C
:1038C0000598C117A0FB042301FB043100FB051080
:1038D000810041EA927005900698C117A0FB04236D
:1038E00001FB043100FB0510810041EA9270069053
:1038F0000798C117A0FB042301FB043100FB05104E
:10390000810041EA927007900598000E8DF808003A
:103910000598000C8DF809000598000A8DF80A003A
:103920000598C0B28DF80B000698000E8DF80C00BB
:103930000698000C8DF80D000698000A8DF80E0010
:103940000698C0B28DF80F000798000E8DF8100091
:103950000798000C8DF811000798000A8DF81200E6
:103960000798C0B28DF8130002AA0C214FF42570FD
:10397000FFF76AFA08B070BD30B585B004461DA2E5
:1039800007CA02AB07C3C82C03DD4FF0FF3005B0F8
:1039900030BDC82090FBF4F0401E85B2280A8DF897
:1039A0000000E8B28DF801006A46022140F21620BC
:1039B000FFF74AFA10B14FF0FF30E8E702AA0C21F6
:1039C00040F6C120FFF740FA10B14FF0FF30DEE7BC
:1039D000064884810020DAE7C4AF00084CCD6C00B3
:1039E0000CC92C003656760026466600B000002032
:1039F00009E3CA02FEF2ABC4AAF1DFDFBBAFDFDF2F
:103A00000146FC4880890880002070472DE9FC476A
:103A100006460F4606F0070010B1B7F5C86F03DD84
:103A20004FF0FF30BDE8FC87384607F06DF881465F
:103A3000F14906F01FFF80466846FEF790FB9DF8AF
:103A40000000022806D0042816D0082826D0102806
:103A500048D135E04FF08D41404607F09DF8814652
:103A600007F01AF884B2E549404607F095F8814618
:103A700007F012F885B238E04FF08C41404607F06D
:103A80008BF8814607F008F884B2DD49404607F01C
:103A900083F8814607F000F885B226E04FF08B41AD
:103AA000404607F079F8814606F0F6FF84B2D54922
:103AB000404607F071F8814606F0EEFF85B214E04B
:103AC0004FF08A41404607F067F8814606F0E4FF70
:103AD00084B2CD49404607F05FF8814606F0DCFF2E
:103AE00085B202E04FF0FF309CE700BF20128DF856
:103AF0000400E0B28DF8050028128DF80600E8B247
:103B00008DF8070006F00100A0B101AA02214FF4D0
:103B1000EA70FFF799F910B14FF0FF3082E70DF12D
:103B2000060202214FF49270FFF78EF910B14FF0A8
:103B3000FF3077E706F00200A0B101AA02214FF49E
:103B4000EC70FFF781F910B14FF0FF306AE70DF12B
:103B5000060202214FF49470FFF776F910B14FF08E
:103B6000FF305FE706F00400A0B101AA02214FF484
:103B7000EE70FFF769F910B14FF0FF3052E70DF129
:103B8000060202214FF49670FFF75EF910B14FF074
:103B9000FF3047E7002045E738B504460020009095
:103BA00004F0010020B19DF8000040F030000090CA
:103BB00004F0020020B19DF8000040F00C000090DD
:103BC00004F0040020B19DF8000040F003000090D4
:103BD0006A4601214FF4A470FFF736F938BD38B5B5
:103BE0000446012C01DA012402E0042C00DD042447
:103BF000601EC0B200906A46012140F24F10FFF7EC
:103C000023F938BD38B50446052094FBF0F085B2A1
:103C100028128DF80000E8B28DF801006A460221F2
:103C20004FF4EF70FFF710F938BD38B504460520A2
:103C300094FBF0F085B228128DF80000E8B28DF800
:103C400001006A4602214FF4ED70FFF7FDF838BD20
:103C5000F8B505460E464FF47A7095FBF0F000FB80
:103C600006F4200E8DF80000200C8DF80100200ACB
:103C70008DF80200E0B28DF803006A4604214FF48B
:103C8000AE70FFF7E1F8F8BD38B50446052094FBA7
:103C9000F0F084B220128DF80000E0B28DF801003F
:103CA0006A4602214FF4AD70FFF7CEF838BD38B543
:103CB0000446052094FBF0F084B220128DF8000039
:103CC000E0B28DF801006A4602214FF4AC70FFF7B4
:103CD000BBF838BD38B5044614B94FF0FF3038BDD5
:103CE0006A4604214FF45870FFF7EBF810B14FF01B
:103CF000FF30F4E79DF8000000069DF8011040EA4F
:103D000001409DF8021040EA01209DF8031008438D
:103D100020600020E3E738B50446200E8DF800004F
:103D2000200C8DF80100200A8DF80200E0B28DF819
:103D300003006A4604214FF45870FFF785F838BD38
:103D400038B5044614B94FF0FF3038BD6A46042137
:103D50004FF47170FFF7B5F810B14FF0FF30F4E792
:103D60009DF8000000069DF8011040EA01409DF812
:103D7000021040EA01209DF80310084300EB800088
:103D8000800020600020E0E738B504461420B4FB32
:103D9000F0F4200E8DF80000200C8DF80100200AB0
:103DA0008DF80200E0B28DF803006A4604214FF45A
:103DB0007170FFF749F838BD38B5044664B120206A
:103DC0008DF8000028208DF8010030208DF80200C9
:103DD00038208DF8030004E0A3220421684604F093
:103DE00020F96A46042140F69E20FFF72DF8FDF7E2
:103DF00085FC38BDB000002000004843000040466C
:103E00000000C045000040450000C04438B50446ED
:103E100064B1C0208DF80000C2208DF80100C420DC
:103E20008DF80200C6208DF8030004E08B220421E7
:103E3000684604F0F6F86A46042140F69820FFF739
:103E400003F8FDF75BFC38BD3EB504466CB1FDA13F
:103E5000D1E900208968CDE9002002916A46092154
:103E60004FF49760FEF7F0FF3EBDF9A2D2E90010D3
:103E70009268CDE9010200916A4609214FF49760EA
:103E8000FEF7E2FFF0E73EB5044602208DF80000A1
:103E9000CA208DF80100E3208DF8020009208DF87A
:103EA00003006A4604216820FEF7CEFFA3208DF8A8
:103EB000000004F0400048B1C0208DF80100C82087
:103EC0008DF80200C2208DF8030006E0A3208DF8D3
:103ED00001008DF802008DF8030004F4C07048B1B1
:103EE000C4208DF80400CC208DF80500C6208DF884
:103EF000060006E0A3208DF804008DF805008DF87B
:103F00000600A3208DF807008DF808008DF8090041
:103F10006A460A2140F6A720FEF796FF04F0030048
:103F200018B120208DF8000002E0D8208DF80000A4
:103F30006A46012140F6B620FEF786FF04F0200015
:103F400018B10120FFF780FF02E00020FFF77CFF9F
:103F500004F4C07008B304F4807060B1B2208DF82E
:103F600000008B208DF80100B6208DF802009B2008
:103F70008DF803000BE0B0208DF8000080208DF854
:103F80000100B4208DF8020090208DF803006A46ED
:103F9000042140F6A220FEF757FF04F0010020B3F1
:103FA000F8208DF800006A4601214FF40B60FEF7FF
:103FB0004BFFFA210720FFF729FD0720FFF7ECFD53
:103FC0000120FFF70CFE6420FFF71CFE4FF4FA708F
:103FD000FFF72BFEC821A148FFF73AFE2820FFF784
:103FE00053FE0A20FFF763FE08E0D8208DF800009A
:103FF0006A4601214FF40B60FEF726FF04F0020031
:1040000018B1D9208DF8000002E0D8208DF800000A
:104010006A46012140F23D70FEF716FF04F00400ED
:1040200018B10120FFF7F2FE02E00020FFF7EEFEDC
:1040300004F0100018B10120FFF7BEFE02E00020DE
:10404000FFF7BAFE44F0080085494881FDF756FBAA
:1040500000208349887304F0400018B10846807B33
:10406000801D887304F4C07020B17D48807B801D62
:104070007B49887304F0140020B17948807B1030AC
:104080007749887304F0030020B17548807B001DD8
:104090007349887300203EBD0146714840890880FD
:1040A000002070472DE9F0410446E07800F0C0069A
:1040B000E07800F03F05607800F0010098B1EF1063
:1040C0002846E91705EB5171C910A5EBC101491C40
:1040D00001F0FF086248006820B16148414602686B
:1040E0003846904700BF607800F0080030B15C4867
:1040F000406818B1B0115A4A516888470020BDE89D
:10410000F08110B586B0044656A207CA03AB07C3B8
:1041100057A207CA8DE80700012C09D0022C0ED146
:1041200003AA0B2140F68220FEF78EFE06B010BDDA
:104130006A460B2140F68220FEF786FEF6E74FF036
:10414000FF30F3E72DE9F04F8DB00746884615465E
:104150009946DDE9166B0024002030804049887BB9
:104160005A4605A9FEF7D3F918B1601E0DB0BDE897
:10417000F08F3B48807A00F01400002861D09DF851
:10418000140000069DF8151040EA01409DF8161035
:1041900040EA01209DF81710084328609DF8180098
:1041A00000069DF8191040EA01409DF81A1040EAF7
:1041B00001209DF81B10084368609DF81C00000654
:1041C0009DF81D1040EA01409DF81E1040EA0120B4
:1041D0009DF81F100843A8609DF8200000069DF878
:1041E000211040EA01409DF8221040EA01209DF88C
:1041F00023100843E86004F11000C4B228680014DA
:104200000190686800140290A86800140390E868A0
:104210000014049001984043029901FB01000399A6
:1042200001FB0100049901FB010ABAF1706F02DB86
:10423000BAF1885F22DDFDF761FA00203080401E70
:1042400094E721E0B8AAB38DB4980D355D00000065
:10425000B8AAAAAAB088C3C5C700000009E3CA0269
:10426000B0000020D8B1B9F38BA391B609B4D9003E
:10427000DAB1B9F38BA391B6DAB4DA00B6F900007B
:1042800040F48070308000BF3448807A00F04000F5
:1042900020B305A9601C085C095D40EA012000B25A
:1042A000A8F8000005A9E01C095C05AAA01C105C88
:1042B00041EA002000B2A8F8020005A9601D095CCF
:1042C000201D105C41EA002000B2A8F80400A01DE7
:1042D000C4B2B6F9000040F0080030801F484089A1
:1042E00000F4C07008B305A9601C085C095D40EAD1
:1042F000012000B2388005A9E01C095C05AAA01CB9
:10430000105C41EA002000B2788005A9601D095CBC
:10431000201D105C41EA002000B2B880A01DC4B28C
:10432000B6F9000040F0700030800C48807A00F050
:10433000030018B105A90819FFF7B4FE4846FDF7B8
:104340004AFD002012E70146044801600020704742
:10435000014602484160002070470000B000002084
:1043600070B504460D462146FE4802F04FF8FE485F
:1043700005600020FD49C1F89801FD490860012051
:104380000860F9490C310860F849C1F88C0170BD2A
:1043900070B500241CE004F1B001C8B20021FFF7A1
:1043A000DFFF00210846FFF7DBFF00211020FFF7A9
:1043B000D7FF002508E0EF4901EBC501085D0121A9
:1043C000FFF7CEFF681CC5B2802DF4DB601CC4B2C1
:1043D000082CE0DB70BD10B500218D20FFF7C0FF79
:1043E00000211420FFF7BCFF0021AF20FFF7B8FF2A
:1043F00010BD10B500218D20FFF7B2FF0021102065
:10440000FFF7AEFF0021AE20FFF7AAFF10BD70B589
:1044100000240CE0002506E00020D64901EBC50190
:104420000855681CC5B2802DF6DB601CC4B2082C90
:10443000F0DBFFF7ADFF70BDF0B5144600267F2816
:1044400001DC3F2900DDF0BD0B46CF1701EB5777AC
:10445000FF10C7F10707FAB2CF1701EB5777FF102C
:10446000A1EBC707FDB2C5F107070123BB40DEB2D0
:104470004CB1C04B03EBC0039B5C3343BD4F07EB18
:10448000C007BB5408E0BB4B03EBC0039B5CB343CA
:10449000B84F07EBC007BB5400BFD4E72DE9F04786
:1044A00006460F4690469946DDF820A034460CE0BB
:1044B0003D4606E0524629462046FFF7BDFF681CF0
:1044C000C5B24D45F6DD601CC4B24445F0DDFFF7D2
:1044D0005FFFBDE8F0872DE9F84F80460F4616468E
:1044E0001C46BA462046E31704EB5373DB10214603
:1044F0004FEAE47C04EB5C7C4FEAEC0CA4EBCC0CC4
:10450000BCF1000F02D04FF0010C01E04FF0000CA5
:104510006344224604EBD27C4FEA6C0C03FB0CF3A1
:1045200003F0FF0BA6F12000C6B200254EE00C2CD4
:1045300007D106EB4600904901EB8000405D0090FA
:1045400013E0102C05D18D4800EB0610405D009063
:104550000BE0182C07D106EBC600894901EB80005F
:10456000405D009001E0BDE8F88F4FF0000927E0C2
:10457000009800F0800028B1394640460A9AFFF7BB
:104580005BFF09E00A9808B9012000E0002002461C
:1045900039464046FFF750FF00984006000E009055
:1045A000781CC7B2A7EB0A00A04205D1574608F114
:1045B000010000F0FF0806E009F1010000F0FF092A
:1045C000B9F1080FD4DB00BF681CC5B25D45AEDB96
:1045D00000BFC8E710B50246012000E050430B1EA3
:1045E000A1F10104E1B2F9D110BD2DE9FF4F81B075
:1045F000074691461E460E9D4FF0000A002439E002
:10460000301B401EC1B20A20FFF7E4FFB9FBF0F0F7
:104610000A21B0FBF1F201FB1208BAF1000F16D12A
:10462000701EA04213DDB8F1000F0ED10120AB4681
:1046300005EBDB71491001FB04710090C8B22B46F9
:1046400020220299FFF747FF12E04FF0010A0120F4
:10465000AB4605EBDB71491001FB04710090C8B259
:1046600008F13001CAB22B460299FFF734FF00BFB0
:10467000601CC4B2B442C3DB05B0BDE8F08FF8B52E
:1046800006460F4615461C4621E004EBD47149103E
:10469000C1F18001B14202DA00263819C7B2C4F173
:1046A0004000B84204DA002006460746FFF7AFFE96
:1046B000012000902A78234639463046FFF70BFF49
:1046C000204604EBD07106EB6101CEB26D1C287858
:1046D0007E2802DC28782028D7DAF8BD08B5012129
:1046E0004FF4987002F098F84820ADF800001020C0
:1046F0008DF8030003208DF802006946214801F07F
:10470000CFFD48211F4801F078FEFF20ADF80000E2
:104710006946144801F0C4FDFF21124801F06DFE06
:104720004FF46040ADF800006946174801F0B8FD4D
:104730004FF46041144801F060FE01200A490C3139
:1047400008600A49C1F88C0100200949091D086068
:10475000642001F0EAFB01200C49C1F8BC010021F2
:10476000AE2015E0001001408C81224200802242E0
:10477000B8012442C0000020BABB00082EC00008C7
:104780001EC6000800140140002001400000244221
:10479000FFF7E6FD0021D520FFF7E2FD00215020C4
:1047A000FFF7DEFD0021A820FFF7DAFD00213F2002
:1047B000FFF7D6FD0021D320FFF7D2FD00210846E8
:1047C000FFF7CEFD00214020FFF7CAFD00218D201C
:1047D000FFF7C6FD00211420FFF7C2FD00212020B5
:1047E000FFF7BEFD00210220FFF7BAFD0021A12046
:1047F000FFF7B6FD0021C020FFF7B2FD0021DA204F
:10480000FFF7AEFD00211220FFF7AAFD0021812055
:10481000FFF7A6FD0021EF20FFF7A2FD0021D92020
:10482000FFF79EFD0021F120FFF79AFD0021DB201C
:10483000FFF796FD00213020FFF792FD0021A42014
:10484000FFF78EFD0021A620FFF78AFD0021AF2093
:10485000FFF786FDFFF7DBFD08BD000010B5CD4872
:1048600000783C2837DB0020CA490870CA48007825
:10487000401CC9490870084600783C287FDB0020AE
:104880000870C6480078401CC44908700846007883
:10489000182874DB00200870C1480078401CC0490B
:1048A0000870C0480078022816D1084600781D28F4
:1048B00012DB01200870BB480078401CB949087021
:1048C000084600780D285ADB01200870B648008899
:1048D000401CB549088052E0B2480078012817D042
:1048E000B0480078032813D0AE48007805280FD0D0
:1048F000AC48007807280BD0AA480078082807D0D1
:10490000A84800780A2803D0A64800780C2817D1B8
:10491000A3480078202813DB0120A1490870A14892
:104920000078401C9F490870084600780D2826DB57
:10493000012008709C480088401C9B4908801EE0AC
:104940009849087800EBD0714910A0EB4101B1B94A
:10495000934909781F2912DB012091490870914879
:104960000078401C8F490870084600780D2806DB47
:10497000012008708C480088401C8B4908808949B8
:104980000978491C01EB4101052291FBF2F1844AAF
:104990001278844B1B78022404FB03221144824AC0
:1049A00012881144804A1088C21700EB927201EB02
:1049B000A2017D4A1288642392FBF3F2891A7A4A93
:1049C00012889B0092FBF3F21144072291FBF2F351
:1049D00002FB1311754A118010460088072821D266
:1049E000DFE800F004080C1014181C0001207049C6
:1049F000088017E002206E49088013E003206C490C
:104A000008800FE004206A4908800BE0052068490F
:104A1000088007E006206649088003E00720644913
:104A2000088000BF00BF10BD08B55C4800780928A9
:104A30000FDC18235FA200210846FFF720FE182094
:104A4000012300905548027800210C20FFF7CDFD8E
:104A500008E0182002230090504802780021084600
:104A6000FFF7C3FD182354A200211846FFF707FEE5
:104A70004948007809280FDC18234EA20021242081
:104A8000FFF7FDFD18200123009043480278002124
:104A90003020FFF7AAFD08E01820022300903E48CE
:104AA000027800212420FFF7A0FD182342A2002154
:104AB0003C20FFF7E4FD3748007809280FDC182375
:104AC0003CA200214820FFF7DAFD182001230090C6
:104AD0003048027800215420FFF787FD08E01820B5
:104AE000022300902B48027800214820FFF77DFD2B
:104AF0001020042300902C4802881C210020FFF77E
:104B000074FD10232DA21C212020FFF7B8FD25489D
:104B1000007809280FDC102326A21C212820FFF78B
:104B2000AEFD1020012300901E4802781C21302089
:104B3000FFF75BFD08E0102002230090194802787F
:104B40001C212820FFF751FD10231CA21C21382016
:104B5000FFF795FD1248007809280FDC102315A2F5
:104B60001C214020FFF78BFD1020012300900C48F2
:104B700002781C214820FFF738FD08E010200223AE
:104B80000090074802781C214020FFF72EFDFFF718
:104B9000FFFB08BD08000020090000200A000020DB
:104BA0000B0000200C0000200E000020120000204E
:104BB00010000020300000003A0000002F0000002C
:104BC000F8B50A2601250121042001F025FEE8039D
:104BD000ADF8000048208DF8030003208DF8020096
:104BE0006946704801F05CFB1020ADF800008DF8BC
:104BF000030003208DF8020069466A4801F050FB6B
:104C00001021684801F0F9FB0121674801F019FC07
:104C10000120664908606649C1F83C014FF416500E
:104C200000F009F933E00120604908600A2001F032
:104C30007CF960A000F05EF900205D49C1F89001A8
:104C400000240AE05D48008800F4004000B106E05E
:104C5000052001F06AF9601CC4B20A2CF2DB00BF27
:104C60005648008800F4004088B154480088C5B216
:104C7000002052490880042D09D1514800784F285E
:104C800005D14F4840784B2801D1002504E0301E63
:104C9000A6F10101CEB2C6D100BF06B90125284652
:104CA000F8BD70B50F2631E00120404908600A20A8
:104CB00001F03BF943A000F01DF900250AE00A20AD
:104CC00001F033F93D48008800F4004000B103E0F2
:104CD000681CC5B2142DF2DB00BF00203349086008
:104CE0003648008800F4004080B134480088C4B2DF
:104CF0000020324908800D2C08D1314800782B283B
:104D000004D12F4880793038C4B204E0301EA6F1B7
:104D10000101CEB2C8D100BF06B9FF24204670BD44
:104D20002DE9F04105460F2730E001201F490860BA
:104D30000A2001F0FAF8294625A000F0DBF800204F
:104D40001B49C1F8900100260AE01C48008800F4C5
:104D5000004000B106E0052001F0E7F8701CC6B283
:104D6000142EF2DB00BF1548008800F4004068B143
:104D700012480088C4B2002010490880042C05D1D4
:104D80000F4800784F2801D1002404E0381EA7F115
:104D90000101CFB2C9D100BF07B9FF242046BDE849
:104DA000F081000000080140000230009001214223
:104DB0000000214241540D0A000000006200002062
:104DC000C004002041542B524F4C453F0D0A0000B7
:104DD00025730D0A0000000010B540F22551574818
:104DE00002F04CFEF8B1554802F0C8FDC4B2544878
:104DF000008800F40040B0B951480088B0F5167F33
:104E000012DA00214F4802F02FFC4D48008818B9F3
:104E100001214C4802F094F949490888411C484A4C
:104E2000118049490C5405E04548008840F4004091
:104E30004349088010BD10B586B004460121082002
:104E400001F0EAFC0121880401F0F3FC3B4802F088
:104E500055FC4FF48060ADF8100003208DF812006F
:104E600018208DF8130004A9384801F019FA4FF4FE
:104E70000060ADF8100004208DF8130004A9334839
:104E800001F00EFA00940020ADF80400ADF8060021
:104E9000ADF80800ADF80C000C20ADF80A0069462A
:104EA000264802F06EFC0121244802F0F6FC0122A3
:104EB00040F22551214802F0FCFC27208DF8140017
:104EC00002208DF8150003208DF8160001208DF8C2
:104ED000170005A801F01BF941F61F416320FBF7FD
:104EE00062FE0020164908800021164802F028F9C9
:104EF00006B010BD0FB438B505A800901448009A4C
:104F0000049902F0B3FE00200090114803F06AF803
:104F100085B200240DE000BF4021084802F098FD52
:104F20000028F9D00A48015D044802F023FD601C06
:104F300084B2AC42EFDB38BC5DF814FB00480040A3
:104F40006200002000140040C0040020000C01405A
:104F50001807002030B50C46012213E050F822302B
:104F6000114605E04D1E50F8255040F82150491ECD
:104F7000002904DD4D1E50F825509D42F2DC40F81A
:104F80002130521CA242E9DB30BDF0B50346154684
:104F9000012217E051F82240104605E0461E51F864
:104FA000266041F82060401E002808DD53F8247078
:104FB000461E51F8266053F82660B742EEDC41F8F1
:104FC0002040521CAA42E5DBF0BD2DE9F04F05461A
:104FD0000C4692469846294650462268FFF7D5FF70
:104FE0004FF0FF3621E0D4F800B0701C2060771C31
:104FF00018E055F82710701C10B94FF0FF3001E091
:1050000055F82600A1EB0009C14503DCC8F10000FA
:10501000814506DA55F827102268501C206045F8B3
:1050200022107F1C5F45E4DB761C2068B042DADC8E
:1050300028462168FFF78EFFBDE8F08FF0B50546E2
:105040001C46059E012000270F6030E052F82070BA
:10505000B7422BDD52F820C0471E52F82770BC45DE
:1050600024DD012300E05B1CC718A74207DA52F8D1
:10507000207000EB030C52F82CC06745F3D052F8B7
:10508000207000EB030C52F82CC067450CDD0F6854
:105090000F2F09DAD1F800C00CF101070F6045F8B5
:1050A0002C005F1C384402E0184400E0401C671EDE
:1050B0008742CBDCF0BD2DE9F84705460C46164685
:1050C0001F46DDE90A9ADDF824803B463246214638
:1050D0002846CDF80080FFF7B1FF4B463246214607
:1050E0002846FFF772FF2068504501DA206800E08B
:1050F00050462060BDE8F8872DE9FF4FC6B08846CE
:10510000994600204590002406E0469850F8241067
:10511000459808444590641C4445F6DB4598B0FB2F
:10512000F8F04590002408E0469850F8241045987F
:10513000081AFE4941F82400641C4445F4DB0024AD
:1051400017E0FA4850F824100246601C52F820007C
:105150000144A01C52F820000144E01C52F8200039
:105160000F183846F91707EB9171891042F824108F
:10517000641CB4F5F87FE4DB00240AE0EB49601C12
:1051800051F8200051F82410401AE94941F8240050
:10519000641CB4F5F77FF1DD00240EE0E44951F81A
:1051A00024200B46611C53F82110501800EBD071DD
:1051B00049101A4642F82410641CB4F5F77FEDDB61
:1051C00000251BE0002043902C460BE0D84850F807
:1051D0002410601BD74A32F81020439801FB1200BC
:1051E0004390641C681D8442F0DB40F27A4143988E
:1051F00090FBF1F0CE4941F825006D1CB5F5F47F28
:10520000E0DD00204190002410E0C94850F824005F
:10521000002803DDC64850F8240003E0C44850F8D5
:1052200024004042419908444190641CB4F5F77F42
:10523000EBDD40F2EF11419890FBF1F04190052138
:105240000822419840F2EF13CDE901210090B84ABD
:1052500040A912A8FFF72FFF0020119040980228C4
:1052600021DB01240BE012A850F82410601E12AAC2
:1052700052F82000091A119808441190641C4098B3
:105280008442F0DB4098401E119991FBF0F01190A0
:1052900041F27071119891FBF0F154980160012175
:1052A0005598017005E0A449549801600021559873
:1052B0000170002407E012A850F82400801C30A9D7
:1052C00041F82400641C40988442F4DB00240CE084
:1052D000469850F82400954941F82400489850F821
:1052E0002400964941F82400641C4445F0DB00206A
:1052F000429000242DE00120449030A850F824A0D2
:105300004FF080703F900AF10500B0F5F77F1FDC89
:105310000A3800281CDD054611E0844850F82510A5
:105320003F9881420ADA449808B1002044907F48AF
:1053300050F825003F9021A840F824506D1C0AF138
:1053400005008542E9DB449810B94298401C429020
:10535000641C40988442CEDB4298022808DA7648E2
:10536000C9F800000021539801704AB0BDE8F08FE1
:1053700000242EE06D4951F824200B46611C53F89F
:1053800021100A44A11C53F821100A44E11C53F8CF
:1053900021105018C11700EB917189101A4642F87C
:1053A0002410664951F824200B46611C53F8211043
:1053B0000A44A11C53F821100A44E11C53F821109F
:1053C0005018C11700EB917189101A4642F8241049
:1053D000641CB4F5F87FCDDB002004900026002487
:1053E00004E0002005A941F82400641C052CF8DB2A
:1053F00000240DE021A850F82400B0F5FA7F06DD66
:105400004D48C9F80000002153980170ADE7641CB5
:1054100042988442EEDB0024AEE04FF07F400D90D6
:105420000C9021A9601C51F8200051F82410401A5A
:105430000A2879DD21A850F8245016E03B4850F89E
:1054400025100C98814204DD384850F825000C9056
:105450000A953A4850F825100D98814204DD3748E6
:1054600050F825000D900B956D1C21A9601C51F87A
:105470002000A842E2DC601C51F820002F4951F8BE
:10548000200021A951F824102C4A52F82110401A6A
:1054900021A951F824200B99891A4843109021A979
:1054A000601C51F8200051F82410411A109890FB0C
:1054B000F1F021A951F82410204A52F82110084493
:1054C000109011460B9851F820101098081A10905F
:1054D00021A9601C51F82000144951F8200021A98D
:1054E00051F82410114A52F82110401A21A951F8FC
:1054F00024200A99891A48430F9021A9601C51F869
:10550000200051F82410411A0F9890FBF1F021A9C6
:1055100051F82410054A52F8211008440F90114602
:105520000B9851F820100BE025E00000301100200E
:10553000700900207AD3000819FCFFFF0019002031
:105540000F98081A0F900C9910984843C0110390B7
:105550000D990F984843C711002F0CDD052E0ADA6C
:10556000039840B164210398484390FBF7F005A9E4
:1055700041F82600761C641C4298401EA0423FF76A
:105580004CAF314605A8FFF7E5FC304606EBD0717D
:105590004FEA610BBBF1010F0CDDABF1010105AA74
:1055A00052F8211052F82B20881800EBD0714910C6
:1055B000049103E005A850F82B00049004980228F9
:1055C0000DDD0498B8280ADA09490498085C0E90A1
:1055D0000E98C9F8000001215398017005E00548B4
:1055E000C9F8000000215398017000BFBDE600001B
:1055F000B8D3000819FCFFFF08B50121502001F0C5
:105600000BF94FF44070ADF8000010208DF8030046
:1056100003208DF8020069468F4800F041FE022009
:10562000ADF8000004208DF8030069468B4800F0B7
:1056300037FE01208A4908608A49C1F8A40108BDE3
:1056400010B58548406820F0F0008349486008465E
:10565000406840F03000486001208149091D086021
:105660008049C1F8A001042000F03BFC00207C49E7
:10567000091D0860042000F034FC00207949C1F8BD
:10568000A00110BD10B57448406820F0F0007249C8
:1056900048600846406840F030004860002070498B
:1056A00008607049C1F8A401042000F01AFC012030
:1056B0006B4908606B49C1F8A401042000F011FC9B
:1056C00010BD10B500246448406820F0F000624925
:1056D00048600846406840F080004860012060490A
:1056E000091D086000F0FDFB01205E49C1F8A00122
:1056F00000F0F7FB07E0601CC4B2FA2C03DDFFF7F3
:10570000C1FF012010BD56487C3800680028F2D146
:105710005349086000BFF5E710B500205049086004
:105720004D48406820F0F0004B494860084640680A
:1057300040F03000486000204A49C1F8A40102202E
:1057400000F0CFFB012046490860022000F0C9FBB1
:1057500000204449C1F8A00110BD10B50020404907
:1057600008603D48406820F0F0003B49486008462A
:10577000406840F03000486001203A49C1F8A40177
:10578000022000F0AEFB012035490860022000F045
:10579000A8FB00203349C1F8A00110BD70B5044634
:1057A0002D48406820F0F0002B49486008464068CA
:1057B00040F030004860002029490860002517E0CB
:1057C000E0092749091D08606006040E022000F068
:1057D00088FB01202349C1F8A001022000F081FBD1
:1057E00000201F490860022000F07BFB681CC5B246
:1057F000082DE5DB70BD70B50546002416484068ED
:1058000020F0F000144948600846406840F08000ED
:105810004860002616E0002011490860022000F0D0
:1058200060FB01200F49C1F8A0016006040E0C487E
:105830007C38006808B1601CC4B2012000F051FB44
:10584000701CC6B2082EE6DB15B1FFF786FF01E03B
:10585000FFF762FF204670BD0010014000180140B4
:10586000A00122420000224208B50121082000F0D8
:10587000D3FF8020ADF8000004208DF80300032042
:105880008DF802006946944800F00AFD08BD2DE934
:10589000F04105460C46FFF7D3FEAE20FFF77EFF32
:1058A000FFF70FFF06462846FFF778FFFFF709FFCF
:1058B00007462046FFF772FFFFF703FF8046FFF71A
:1058C000E1FE1EB917B9B8F1000F03D04FF0FF3059
:1058D000BDE8F0810020FBE72DE9F04105460C46CC
:1058E000FFF7AEFEAE20FFF759FFFFF7EAFE0646D0
:1058F0002846FFF753FFFFF7E4FE0746FFF7A0FE39
:10590000AF20FFF74BFFFFF7DCFE80460020FFF7DC
:1059100072FF2070FFF7B6FE1EB917B9B8F1000F7D
:1059200003D04FF0FF30BDE8F0810020FBE710B559
:10593000FFF79AFFC0210220FFF7A9FF10B14FF037
:10594000FF3010BD00210320FFF7A1FF10B14FF081
:10595000FF30F6E700210420FFF799FF10B14FF068
:10596000FF30EEE700210520FFF791FF10B14FF067
:10597000FF30E6E700210620FFF789FF10B14FF066
:10598000FF30DEE70F210820FFF781FF10B14FF055
:10599000FF30D6E703210920FFF779FF10B14FF060
:1059A000FF30CEE727210A20FFF771FF10B14FF03B
:1059B000FF30C6E724210C20FFF769FF10B14FF03C
:1059C000FF30BEE724210D20FFF761FF10B14FF03B
:1059D000FF30B6E77F211020FFF759FF10B14FF0DD
:1059E000FF30AEE70020ACE72DE9FE4304460D464C
:1059F00000202060286002A9FFF76EFF02A90120A5
:105A0000FFF76AFF07208DF80000FFF719FEAE20B0
:105A1000FFF7C4FEFFF755FE07469DF80000FFF7AD
:105A2000BDFEFFF74EFE8046FFF70AFEAF20FFF7F0
:105A3000B5FEFFF746FE81460020FFF7DCFE064676
:105A400036042068304420600020FFF7D4FE06466C
:105A500036022068304420600020FFF7CCFE064666
:105A60002068304420600020FFF7C5FE064636045B
:105A70002868304428600020FFF7BDFE0646360245
:105A80002868304428600020FFF7B5FE0646FFF77F
:105A9000F9FD2868304428602068C0F311002060B8
:105AA0002868C0F3110028602FB9B8F1000F02D1A7
:105AB000B9F1000F03D04FF0FF30BDE8FE830020A6
:105AC000FBE710B540210920FFF7E1FE10B14FF0D0
:105AD000FF3010BD0020FCE7000C01400EB5FFF7C1
